:0602DE0012011402007081
:10011400E4F508F509F50AF50CF50B750DFFF50E78
:10012400F50F7F05787AE4F608DFFCE4FFE4FEEFE0
:1001340075F014A424162EF8E4F60EBE14F10FBFC5
:0201440005EBC9
:010146002296
:100070007BFF7A0279EAE4FD12026C7BFF7A027957
:10008000EC7D0112026C7BFF7A0279EE7D02120296
:100090006C7BFF7A0279F07D0312026C7BFF7A029F
:1000A00079F27D0412026CE4F515AF1512014705D3
:1000B00015E515C3940540F2E4F515747A2515F895
:0900C000A6150515E515B405F2BD
:0100C9002214
:10026C00AF01ED75F014A42416F8A607EAFFED759E
:09027C00F014A42417F8A60722CF
:10014700EF75F005A42484F8E4F608F6EF75F014CB
:10015700A42417FEEF75F005A42486F8A606EF750C
:10016700F005A42487F87601EF75F005A42488F834
:03017700E4F62289
:0102F40022E7
:0602E4001202DE0200CA56
:1000CA00750FFF750E011202F4C2AFE5097011E552
:1000DA000DB4FF071202858F0980051202B58F0938
:1000EA00750A05850908E4F509E50875F005A424EB
:1000FA0086F8E6F581D007D006D005D004D001D025
:0A010A0000D0D0D0F0D0E0D2AF2238
:0202EA0080FE94
:0202EC0080FE92
:0202EE0080FE90
:0202F00080FE8E
:0202F20080FE8C
:10025100E4FE747A2EF8E6700DA607EF75F005A49A
:0B0261002487F87601220EBE05E8227B
:10021500E4FE747F2EF8E6700EA607EF75F005A4D0
:0F0225002487F8760180040EBE05E7750DFF22D1
:0D02B500787AE6F51560031201D0AF15222E
:10028500787FE6F51560031201F5787FE67002F5D3
:040295000DAF152272
:100234008F13E4F514747A2514F8E513667004F644
:0D0244000201D00514E514C3940540E92221
:10017A008F10E4F511F512747F2512F8E5106670F8
:10018A0009751101F61201F580090512E512C394E9
:0D019A000540E4787FE67002F50DAF1122FC
:1001D000E4FFFE747A2EF8E6600D747F2EF8E6FDDB
:1001E000747F2FF8A6050FBE0406747F2EF8E4F680
:0501F0000EBE05DF2238
:1001F500E4FFFE747F2EF8E6FD6007747F2FF8A6F6
:10020500050FBE0406747F2EF8E4F60EBE05E42243
:10000300C2AF1201A7EF7003D2AF22E5097011E569
:100013000DB4FF071202858F0980051202B58F09FF
:10002300750A05E50865096041C0E0C0F0C0D0C0AD
:1000330000C001C004C005C006C007E50875F0058F
:10004300A42486F8A681850908E4F509E50875F076
:1000530005A42486F8E6F581D007D006D005D004A0
:0D006300D001D000D0D0D0F0D0E0D2AF223C
:1001A700E50FF460037F0022E50BB401037F002213
:1001B700E50C60037F0022E50EB404037F0022E50F
:0901C7000A60037F00227F01227F
:0802CE00C2AF750B01D2AF2293
:0802D600C2AFE4F50BD2AF2228
:0E029900C2AFE50CC394055002050CD2AF2293
:0E02A700C2AFE50CD394004002150CD2AF227A
:030000000202C237
:0C02C200787FE4F6D8FD75819C0202E410
:00000001FF
