:0600FB0012009002000358
:10009000E4F508F509F50AF50CF50BF50DF50EF587
:1000A0000F7F057875E4F608DFFCE4FFE4FEEF75EA
:1000B000F014A424112EF8E4F60EBE14F10FBF05BF
:0100C000EB54
:0100C100221C
:100003007BFF7A017907E4FD1200C27BFF7A017955
:10001300097D011200C27BFF7A01790B7D02120078
:10002300C27BFF7A01790D7D031200C27BFF7A0147
:10003300790F7D041200C2E4F510AF1012005D05C4
:1000430010E510C3940540F2E4F51074752510F81B
:09005300A6100510E510B405F239
:01005C002281
:1000C200AF01ED75F014A42411F8A607EAFFED754F
:0900D200F014A42412F8A6072280
:10005D00EF75F005A4247AF8E4F608F6EF75F014C0
:10006D00A42412FEEF75F005A4247CF8A606EF7506
:10007D00F005A4247DF87601EF75F005A4247EF833
:03008D00E4F62274
:060101001200FB0200DB0E
:1000DB007876E6F509F508E50875F005A4247CF8B3
:0400EB00E6F5812293
:0201070080FE78
:0201090080FE76
:02010B0080FE74
:02010D0080FE72
:02010F0080FE70
:030000000200EF0C
:0C00EF00787FE4F6D8FD758192020101D3
:00000001FF
